:020000040800F2
:10000000000002203D1D00084D0D00084D0D0008A8
:100010004D0D00084D0D00084D0D000800000000BA
:100020000000000000000000000000004D0D00086E
:100030004D0D0008000000004D0D00084D0D00089A
:100040002DE9F04FDFF804B393B00C4691465F46BC
:100050000A92119020E07B880120226800FA03F3C5
:100060001A4000F0928162683879134000F04382B0
:10007000B0FA80FA01238B460D464FEA5A1A0193D3
:10008000019B0C37C9E90235B14BBB42C9E900AB52
:1000900009F1100900F05C8239780029DBD00129D0
:1000A000FB8800F07981002B00F04C8201203A8916
:1000B0007989002501901344A548109400EB420271
:1000C000059500EB4303029200F1DC020B9302EB77
:1000D0000112CDE90E979146CDE90355029A0A998E
:1000E00032F8023BD9E900EB02921A0101EB03134B
:1000F00051F802A05EEA0B02D3F8048000F01D81E3
:100100005AEA080200F019819A68BBF1000FDB6817
:1001100074465E460892099303DADEF100046BEB45
:100120004B06099D2046089F3146002D2B463A4636
:1001300002DA7A4265EB4503DDE908573D430AD010
:10014000754614461E4601F021FE53EA020720467A
:100150003146F6D1AE46D9F80830B8F1000F554611
:1001600047460693D9F80C30079303DADAF1000515
:1001700068EB480707992846DDF818C000290B46A8
:1001800062460C9702DA524261EB4103DDE9061C3C
:1001900051EA0C0C0FD0CDF83490F1460C9915466D
:1001A0001F4601F0F3FD53EA020C28463946F6D10A
:1001B000CE46DDF83490704622465946334601F06B
:1001C000E5FD03468B46414698462A463B46504647
:1001D00001F0DCFD08FB01F12A46A8FB008500FBCD
:1001E0000B113B460D44DDE9060101F0CFFD07464A
:1001F0008C46224633466446DDE9080101F0C6FD1F
:1002000007FB01F1A7FB00B700FB0411DDE9033296
:100210000F44134300F0B38058EA05037FD0059BD9
:10022000019A002B9A46164602DA564263EB430ABD
:10023000002F5A463B4603DADBF1000267EB470327
:100240005BEA070100F062813046514616469A4645
:1002500001F09CFD53EA020430465146F6D1324685
:1002600053460198059901F091FD32460E46044629
:10027000534639460BFB06FC5846069607FB04C757
:10028000ABFB04A63744CDF804A0059701F07EFD32
:10029000049B069E039A00FB03F308FB06F602FB91
:1002A000013305FB0466A0FB0202A8FB04481344CB
:1002B0004644021943EB0603002F03921C460493A5
:1002C00048DB194652EA04033BD0002914460D4688
:1002D00002DA544261EB4105019B2046059A29460A
:1002E000134314D0019F059E3A46334614461D46DB
:1002F00001F04CFD53EA020620462946F6D101984A
:10030000224605992B4601F041FD019005912246B8
:100310002B46DDE9030101F039FDCDE903010B9B1B
:1003200009F11009029A93427FF4D8AE109C059D02
:10033000DDE90E97DDE903ABA2E6DDE90332134305
:10034000EDD10123019300230593E8E7282300085A
:10035000F426000852EA0403F3D0534251461046F3
:1003600064EB44024942019167EB47010591214644
:10037000002901DA40421146CDE90332B2E7CDF857
:1003800004B00597CDE90385C9E74FF0010A15468A
:100390009346CDF804A073E6002B00F0E4803A8980
:1003A000002573481344A84600EB4202019100EB7C
:1003B00043030591029206930994CDE90797029AA7
:1003C0000A9932F8023B02921A0101EB031351F829
:1003D00002A0D3F804B05AEA0B0200F085809A68B4
:1003E000B8F1000FDB68474603920493059B1C4657
:1003F00002DA5C4268EB4807049E2046DDF80CC038
:100400003946002E3346624602DA524266EB460314
:10041000DDE9036C56EA0C0608D014461F4601F0CD
:10042000B5FC53EA020620463946F6D1BBF1000F6F
:100430005646D94603DADAF100066BEB4B09DDF8D4
:1004400004C0002D3046494662462B4602DA52422D
:1004500065EB4503DDF804C05CEA050C08D01646E0
:10046000994601F093FC53EA020C30464946F6D116
:100470000598414622463B4601F088FC0B468046E3
:100480003246504659469A464B4601F07FFC08FBDF
:1004900001F14B46A8FB009800FB0A113246019877
:1004A00088442946CDF8149001F070FC05460E46AC
:1004B0003B462246DDE9030101F068FC05FB01F142
:1004C000A5FB003500FB0611019359EA08030D4412
:1004D00004D0069B029A93427FF471AFCA46099CEE
:1004E000C346DDE90797CBE50123099C002501936D
:1004F000DDE90797C4E59B46B0F1000A4FF0010320
:1005000018BF4FF0010A5D460193B9E5059BD90F6D
:1005100016D04FF0FF33194603FB05F208FB01220A
:10052000A3FB0813D3180C460391002B1D4604931C
:1005300002DA4C4263EB4305CDF804B00597E6E6DA
:100540000123E9E71D460123AA46AB46019397E53F
:100550000A9B119C03F5A0630FCB84E80F00204693
:1005600013B0BDE8F08F1D468A469B46019187E592
:10057000F42600080023C0E9003370471F290CD877
:1005800001238B40016819430160416812B10B439C
:100590004360704721EA0301416070471F2909D871
:1005A000012342688B40016822EA030221EA030129
:1005B000C0E90012704700BF98B10021034600F562
:1005C000A26230B4C0F810150024002501200021DB
:1005D000103343E9044543E902019342F8D130BCAA
:1005E0007047704710B5044622B119B1FFF728FDD6
:1005F000204610BD0020002101220023C4E9000193
:10060000C4E90223204610BD82B02DE9F04F97B017
:10061000934620ACDDF88C90009084E80C00249C7C
:10062000DDE92168002C3BD0002939D0B8F1010F59
:1006300079F100024FEAD672B8BF42F001027ABBEC
:10064000D84579EB0602B4BF0125002528DB0F68E9
:10065000B7F5805F39D24B68B3F5805F35D233EAA6
:100660000702CDE9013230D122460EA8FFF7E8FC9F
:10067000DDE90E5A55EA0A022CD017F0200F019B33
:1006800032D09B062AD5C3454FF001054FF0000A32
:1006900076EB090328465746B4BF2B46534604E081
:1006A000002503230120AA462F46009AC2E9040729
:1006B00010461370C2E9025AC2E906B6C2E90889B7
:1006C00017B0BDE8F04F02B0704703230120AA46DF
:1006D0002F46EAE7029F02230120E6E700230120DC
:1006E0001D469A461F46E0E747F0200243F02003EC
:1006F000119F0CA90C922246109C12A80D930194F4
:100700000297FFF79DFCDDE912EC5EEA0C0300F0B6
:10071000F38054EA070300F0EF80BCF1000F70464D
:10072000614603DADEF100006CEB4C01BAF1000F18
:100730002B46524602DA6B426AEB4A02CDF814B0FD
:10074000CDE90389F046E14696469C4662467346EB
:100750006446774601F01AFB53EA020B20469446A2
:1007600039469E46F2D1C646DDF80C80CC46DDF80F
:100770001090DDF814B0CDE90A23149B029A03937C
:10078000159B002A0493019BCDE906470593174664
:1007900003DA5B4262EB42070593049C0399002C49
:1007A00005980A462346089702DA4A4264EB440356
:1007B000DDE903410C4300F0D080CDF81480F04611
:1007C000CDF82490E146089914461F4601F0DEFA60
:1007D00053EA020C20463946F6D1C646CC46DDF82F
:1007E0001480DDF8249070466146DDE9062301F0AF
:1007F000CDFA02460B46DDE90101CDE9012322468F
:100800003B4601F0C3FA2246019C3B46029F04FB93
:1008100001F100FB0711A4FB00040C440590DDE985
:10082000030101F0B3FA07468C4628465146654657
:10083000DDE9062301F0AAFA07FB01F3059946EA70
:10084000040200FB0533A7FB00071F444BEA01032A
:10085000134357D051EA04030A4653D05BEA060318
:1008600054D08446CA4603902146104604970A9401
:10087000CDE901B6CDE90689CDE908B6E146BB462A
:100880000FE042EA050643EA04073E435CD054EA1F
:100890000506A846A2464DD053EA020491469B465F
:1008A00038D04A465B4601F071FA06460F461546B7
:1008B0001C4642465346DDE9010101F067FA8446D1
:1008C0008E4640468F4208BF66455146CDE9019BA2
:1008D000D7D033463A460A9C9C450398DDF820B0B1
:1008E000A2467EEB0201099E049F059DB4BF012331
:1008F0000023DDE90689D8E600250120AA462F4617
:100900002B46D2E6DDE90A5A0023CEE60D46A24682
:100910000123CAE6DDE90307DDE90689DDE908B65A
:100920000A9C0123A3F10103059DA246B3FA83F3B8
:100930005B09BAE6DDE90307DDE90689DDE908B60A
:100940000A9C4FF0FF33EDE7DDE90307DDE9068997
:10095000DDE908B60A9C0023E4E7059C43E700BFF5
:100960002DE9F04FB7B080460193002A00F0EA80ED
:100970000023144600220F4625460DF1A80C04F171
:10098000300ECDE91E23CDE92223CDE92623012215
:100990000023CDE92023CDE92423CDE928232868AD
:1009A000103555F80C1C664655F8082C0CF1100C47
:1009B00055F8043C75450FC6F1D1019B002B00F0A2
:1009C000DD80002F00F0DA80A068E368012861680C
:1009D000256873F10002B4BF0122002252EAD172ED
:1009E00040F0CC80A8428B41C0F2C880A069E36986
:1009F00001286169256973F10002B4BF0122002258
:100A000052EAD17240F0BA80A8428B41C0F2B6805F
:100A1000A06A616A0128E26A256A72F100034FEA5E
:100A2000D173B8BF43F00103002B40F0A780A84268
:100A30008A41C0F2A3803B68B3F5805F049380F0E5
:100A40009D807A68B2F5805F089280F0978032EAE4
:100A50000305009540F09280019A394614A8FFF7EB
:100A6000EFFA149B159A0C9313430D9200F04981F1
:100A7000169B1CA905940A93179B0B93A34BCDE9D6
:100A800006150993CDE91081099B059933F8022BCE
:100A90008D6809930B68D1F80CB002934B680499E8
:100AA000039301239340194278D0089A1A4200F028
:100AB0008C8001234FF0000A012206991E469946B8
:100AC000D0460023C1E90223C1E90423DDE9023253
:100AD000134330D051463046C246A8460FE042EAA2
:100AE000060543EA04073D4378D054EA0605B046BC
:100AF000A34673D053EA020491469A461BD04A4655
:100B0000534601F043F907460D4616461C46424639
:100B10005B46DDE9020101F039F984468E46404624
:100B20008D4208BF67455946CDE9029AD7D0714634
:100B3000BC45A94152DA079A01239340009A1A430F
:100B400000924BE00020002101220023CDE91E018C
:100B5000CDE92023CDE92A01CDE92C23CDE92201DD
:100B6000CDE92423CDE92E01CDE93023CDE92601BD
:100B7000CDE92823CDE93201CDE934230022032336
:100B80001CA900928DF870306822009B40461D938E
:100B900001F066F9404637B0BDE8F08F1F2A0A46DB
:100BA00000F2B28008991A430B4312A918A8CDE9A4
:100BB0001223019AFFF744FADDE918A85AEA08035C
:100BC00003D0DDE90A3213431CD100220023069929
:100BD000C1E9022301220023C1E90423059A079BEE
:100BE000103201330592069A032B079302F110028B
:100BF00006927FF449AF009B003BDDE9108118BFEE
:100C00000123BFE7B8F1000F5046414603DADAF19D
:100C1000000068EB48010D9C0C9E002C23463246D8
:100C200002DA724264EB440391461C4601F0AEF8CE
:100C300053EA020648462146F6D11A9B0A9A0E93B9
:100C40001B9B16460F930B9B002B1F4602DA564246
:100C500063EB43070F993046DDF838C0BE460029E4
:100C60000B46624602DA524261EB4103DDE90E1C9B
:100C700051EA0C0C09D0714616461F4601F086F861
:100C800053EA020C30463946F6D14A4623465046CE
:100C9000414601F07BF88246884632463B46DDE914
:100CA0000A0101F073F80AFB01F13246AAFB006A5F
:100CB00000FB08113B468A44DDE90E0101F066F8AD
:100CC0004A46814623460C46DDE90C0101F05EF8F8
:100CD00009FB01F3A9FB0098069A00FB0433984432
:100CE000029BC2E9026AC2E90498039A33434AEAC2
:100CF000020213433FF472AF56EA0A037FF4E6AEF2
:100D00006CE702231CA93DE7089B4EE7102A000868
:100D10000178C9B14FF0402210B40D240A290BD03C
:100D2000D2F81C381B06FBD5C2F8281810F8011F92
:100D30000029F3D110BC7047D2F81C381906FBD536
:100D4000C2F828480178EBE7704700BFFEE700BF14
:100D500010B4002385B08DF80E30002800F09F807D
:100D60005E4A0928A2FB00134FEAD30303EB830179
:100D7000A0EB410101F130018DF80D1040F29D8092
:100D8000A2FB034163284FEAD10101EB8104A3EBED
:100D9000440303F130038DF80C3040F29080A2FB45
:100DA000013CB0F57A7F4FEADC0C0CEB8C03A1EB35
:100DB000430303F130038DF80B307CD3A2FB0C31DD
:100DC00042F20F74C908A04201EB8103ACEB43036C
:100DD00003F130038DF80A3073D9A2FB013C4FEACE
:100DE000DC0C0CEB8C03A1EB43033D493033884210
:100DF0008DF8093067D9A2FB0C313A4CC908A042E2
:100E000001EB8103ACEB430303F130038DF80830B1
:100E10005BD9A2FB013C4FEADC0C0CEB8C03A1EB91
:100E200043033149303388428DF807304FD3A2FB5A
:100E30000C312E4CC908A04201EB8103ACEB4303FB
:100E400003F130038DF8063043D9A2FB0123284C6F
:100E5000DB08A04203EB8302A1EB420202F1300265
:100E60008DF8052037D9303300208DF8043001A9E2
:100E70004FF040220D24014411F8010BD2F81C3828
:100E80001B06FBD5C2F828080B788BB10A2BF3D1CF
:100E9000D2F81C381806FBD5C2F82848ECE74FF00A
:100EA0004022D2F81C381C06FBD53023C2F8283863
:100EB00005B010BC70470720D9E70920D7E7082004
:100EC000D5E70620D3E70520D1E70420CFE70320AC
:100ED000CDE70220CBE70120C9E700BFCDCCCCCCC9
:100EE0009F8601003F420F0080969800FFE0F505C5
:100EF000FFC99A3B2DE9F043CA4B4FF00008CA499D
:100F00008BB01A6806464346A0FB010100F08EFF35
:100F100081460F464FF47A72002300F087FF39466E
:100F2000054614464846FA22002300F07FFF8DF85C
:100F30001A808446002E00F0A680BC49092EA1FB31
:100F400006234FEAD30303EB8302A6EB420202F12E
:100F500030028DF8192040F2A382A1FB0302632E18
:100F60004FEAD20202EB8200A3EB400303F130030D
:100F70008DF8183040F29C82A1FB0203B6F57A7F0F
:100F80004FEAD30303EB8300A2EB400202F13002ED
:100F90008DF81720C0F08282A1FB0302D70842F22D
:100FA0000F7207EB87009642A3EB400303F1300377
:100FB0008DF8163040F28682A1FB07239C48DA08A0
:100FC000864202EB8203A7EB430303F130038DF863
:100FD000153040F27B82A1FB0203964FD808BE4237
:100FE00000EB8003A2EB430303F130038DF81430D0
:100FF00040F27682A1FB00238F4ADF08964207EB7E
:101000008703A0EB430303F130038DF81330C0F0E6
:101010006982A1FB07328948D208864202EB82032B
:10102000A7EB430303F130038DF8123040F26082E6
:10103000A1FB02138249DB088E4203EB8300A2EB83
:10104000400202F130028DF8112040F25382303319
:1010500000228DF8103004A90D2611444FF04022D3
:1010600011F8010BD2F81C381F06FBD5C2F828086E
:101070000B788BB10A2BF3D1D2F81C381B06FBD5A9
:10108000C2F82868ECE74FF04022D2F81C38190665
:10109000FBD53023C2F828386A4820224FF040217F
:1010A0000D26D1F81C381F06FBD5C1F8282810F8EA
:1010B000012F4AB10A2AF4D1D1F81C381B06FBD5FE
:1010C000C1F828680278ECE78DF80E20002D00F0BA
:1010D000BB80564B092DA3FB05124FEAD20202EB4F
:1010E0008201A5EB410101F130018DF80D1040F2B4
:1010F000DB81A3FB0201632D4FEAD10101EB8100EB
:10110000A2EB400202F130028DF80C2040F2CE81B9
:10111000A3FB0120B5F57A7F4FEAD00000EB8002F7
:10112000A1EB420202F130028DF80B20C0F0C68123
:10113000A3FB001242F20F76D108B54201EB810207
:10114000A0EB420202F130028DF80A2040F2B88191
:10115000A3FB0102364ED008B54200EB8002A1EBA2
:10116000420202F130028DF8092040F2B381A3FB64
:101170000012304ED108B54201EB8102A0EB4202D1
:1011800002F130028DF8082040F2A681A3FB012372
:101190002948DB08854203EB8302A1EB420202F1FE
:1011A00030028DF80720C0F09F81204A2348A2FB1F
:1011B000036185424FEAD10101EB8106A3EB4603AF
:1011C00003F130038DF8063040F29681A2FB012333
:1011D0001B48DB08854203EB8302A1EB420202F1CC
:1011E00030028DF8052040F28981303300208DF8DF
:1011F000043001A94FF040220D25014411F8010BE4
:10120000D2F81C381E06FBD5C2F828080B7823B389
:101210000A2BF3D1D2F81C381F06FBD5C2F8285888
:10122000ECE700BF0000002000CA9A3BCDCCCCCC3C
:101230009F8601003F420F0080969800FFE0F50571
:10124000FFC99A3B282A00084FF04022D2F81C38E8
:101250001B06FBD53023C2F828384FF04022D2F8C5
:101260001C381B06FBD52E234FF0030E6420A44D23
:101270004FF04021C2F82838B4FBF0F3A5FB03621D
:10128000D20802EB8202A3EB42023032D2B2D1F892
:101290001C381F06FBD5A5FB0030BEF1010EC1F8BE
:1012A00028284FEAD000E7D1964820214FF040226D
:1012B0000D24D2F81C381D06FBD5C2F8281810F8EA
:1012C000011F49B10A29F4D1D2F81C381E06FBD5FA
:1012D000C2F828480178ECE7BCF1630F8DF82610BE
:1012E00040F28880884BBCF57A7F8549A3FB0C23AC
:1012F0004FEA5313A1FB03024FEAD20202EB820032
:10130000A3EB400303F130038DF82530C0F0CA8011
:10131000A1FB0230C00800EB8003A2EB430342F2C2
:101320000F72303394458DF8243040F2C380A1FB16
:101330000032D20802EB8203A0EB43037348303340
:1013400084458DF8233040F2B780A1FB0230C008FD
:1013500000EB8003A2EB43036D4A303394458DF8D4
:10136000223040F2B180A1FB0032D20802EB8203AE
:10137000A0EB43036748303384458DF82130C0F03B
:10138000A780A1FB0230C00800EB8003A2EB43035F
:10139000614A303394458DF8203040F29F80A1FBA4
:1013A00000235E49DB088C4503EB8302A0EB42027D
:1013B00002F130028DF81F2040F298803033022075
:1013C0008DF81E3007A94FF040220D24014411F87A
:1013D000010BD2F81C381E06FBD5C2F828080B7882
:1013E0008BB10A2BF3D1D2F81C381F06FBD5C2F8FB
:1013F0002848ECE74FF04022D2F81C381B06FBD5FA
:101400003023C2F828384FF04022D2F81C381D068D
:10141000FBD53D4B2E2164243948C2F828184FF0E3
:101420004021A3FB0C32520904FB12C2A0FB023084
:10143000C0083030C0B2D1F81C381C06FBD5304B88
:101440004FF04025C1F82808A3FB0213DB0803EB8B
:101450008303A2EB43043034E4B2D5F81C381806F9
:10146000FBD5C5F8284825212D484FF040220D24F2
:10147000D2F81C381B06FBD5C2F8281810F8011F3B
:1014800049B10A29F4D1D2F81C381906FBD5C2F8A3
:1014900028480178ECE70BB0BDE8F0830722DAE5D5
:1014A0000922D8E509208DE70920A2E60820A0E658
:1014B0000822D0E5082085E7072083E7072098E683
:1014C000062096E60622C6E506207BE70522C2E551
:1014D000052077E705208CE604208AE6042071E7E2
:1014E0000422B8E50322B6E5032082E6032069E77B
:1014F0000222B0E50122AEE502207AE6012078E67C
:10150000CDCCCCCCD42B00081F85EB519F8601009D
:101510003F420F0080969800FFE0F505FFC99A3B17
:10152000302A0008864A874BD2F8181841F4404107
:101530002DE9F04FB1B0C2F8181801E0013B49D0D5
:10154000D2F818188E04F9D57F4924207D4A7C4BA7
:10155000086001E0013A3DD0D3F800144D07F9D5F9
:101560007A4A802440F231200821C3F82844C3F885
:101570002C244022C3F83004C3F81814C3F81C24E8
:10158000D3F800246F4842F080726D49C3F80024FC
:1015900001E001381ED0D1F800349C01F9D5D1F812
:1015A0001034684A23F00703654843F00303C1F889
:1015B000103401E0013A0DD0D0F8103403F03803B4
:1015C000182BF7D1624C6349634A644BC4E900129B
:1015D000A36000E05E4C5A4B0021DFF884A14FF07D
:1015E0004022D3F8E0044FF00109DFF8788110AD14
:1015F00040F00A004E46C3F8E004D3F8E80440F493
:101600008020C3F8E804DAF80034574823F00303D5
:10161000CAF80034DAF8003443F00103CAF80034A1
:10162000DAF8003C23F44033CAF8003CDAF8003C16
:1016300043F40033CAF8003CDAF8083C43F40033C2
:10164000CAF8083CDAF8243C23F00F03CAF8243C1B
:10165000DAF8243C43F00703CAF8243CC2F8001827
:101660006368A0FB03033F481B0CC2F80C38092336
:10167000C2F800384FF0E022D2F8FC3D43F080730E
:10168000C2F8FC3D394B3A4AC3F8B02F59601A688A
:1016900042F001021A60FEF78FFF3648FFF738FB71
:1016A0003548FFF735FB3548FFF732FB3448FFF785
:1016B0002FFB3448FFF72CFBA068FFF729FB3248CB
:1016C000FFF726FB24683148A0FB0430800CFFF7AD
:1016D0003FFB2F48FFF71CFB2E48FFF719FB2E4B53
:1016E000A3FB04300EACC009FFF732FB2B48FFF719
:1016F0000FFB2B48FFF70CFB2A4B0FCB84E80F00A6
:10170000DAF814342D2128484FF0402283F00103E9
:101710000D27CAF81434D2F81C381B06FBD5C2F8C2
:10172000281810F8011F002940D00A29F3D1D2F857
:101730001C381906FBD5C2F828780178EBE700BF02
:1017400000400258400D0300002000520C00010030
:101750000000002000C2EB0B80F0FA02682A0008AB
:101760000000025810000020C5B3A291001000E054
:1017700055CEACC5802A0008C42A0008FC2A0008FF
:10178000342B0008782B0008842B000883DE1B43D1
:10179000942B0008BC2B00081F85EB51DC2B0008A4
:1017A000E82B0008182A00082C2C00088DF83610A9
:1017B000002E00F0A5809B4B092EA3FB06124FEADA
:1017C000D20202EB8201A6EB410101F130018DF85A
:1017D000351040F28F82A3FB0201632E4FEAD10144
:1017E00001EB8100A2EB400202F130028DF83420BF
:1017F00040F28282A3FB0102B6F57A7F4FEAD20063
:1018000000EB8002A1EB420202F130028DF833209E
:10181000C0F07482A3FB001242F20F77D108BE42DF
:1018200001EB8102A0EB420202F130028DF832207E
:1018300040F26682A3FB01027B4FD008BE4200EB60
:101840008002A1EB420202F130028DF8312040F219
:101850005982A3FB0012754FD108BE4201EB8102F1
:10186000A0EB420202F130028DF8302040F24C82AF
:10187000A3FB01236E48DB08864203EB8302A1EB46
:10188000420202F130028DF82F20C0F03F826549FC
:10189000A1FB0302D20802EB8200A3EB400330332A
:1018A0008DF82E30634B9E4240F23282A1FB021330
:1018B000DB0803EB8301A2EB410230328DF82D20CF
:1018C0005D4A964240F22682303300218DF82C305A
:1018D0000BAB4FF040220D27194411F8010BD2F841
:1018E0001C381B06FBD5C2F828080B788BB10A2BD5
:1018F000F3D1D2F81C381806FBD5C2F82878ECE7EB
:101900004FF04022D2F81C381F06FBD53023C2F816
:1019100028384A495D274FF040220D20D2F81C3864
:101920001B06FBD5C2F8287811F8017F4FB10A2FAA
:10193000F4D1D2F81C381F06FBD5C2F828080F785E
:10194000ECE705A8FEF716FE3946012205A8FEF7CA
:1019500015FE01223A4F05A81146FEF70FFED7F8F3
:101960000490CDF8088095E803008DE8030005A9F0
:1019700012A894E80C00FEF747FE78685421314F16
:10198000A0EB09004FF040224FF00D0CD2F81C38AC
:101990001B06FBD5C2F8281817F8011F49B10A2900
:1019A000F4D1D2F81C381906FBD5C2F828C839780A
:1019B000ECE79DF84830002B00F093815621224F30
:1019C0004FF040224FF00D0CD2F81C381B06FBD50F
:1019D000C2F8281817F8011F49B10A29F4D1D2F822
:1019E0001C381906FBD5C2F828C83978ECE7174F20
:1019F00020214FF040224FF00D0EBC46D2F81C388B
:101A00001B06FBD5C2F828181CF8011F01B30A29D0
:101A1000F4D1D2F81C381906FBD5C2F828E89CF896
:101A20000010EBE7CDCCCCCC9F8601003F420F00ED
:101A300080969800FFE0F505FFC99A3B382C000816
:101A4000001000E06C2C00083C2A0008902C0008D4
:101A5000FFF750FA4FF04022D2F81C381806FBD599
:101A60000D23C2F828384FF04022D2F81C3819064E
:101A7000FBD50A2307A8DFF8A0B2C2F82838FEF782
:101A800079FD0122032107A8FEF778FD0122042138
:101A900007A8FEF773FDDBF80490CDF8088095E801
:101AA00003008DE8030007A91CA894E80C00FEF7CA
:101AB000ABFDDBF80400DFF864C254214FF0402294
:101AC000D2F81C381B06FBD5C2F828181CF8011FD9
:101AD00069B10A29F4D14FF04021D1F81C381B0616
:101AE000FBD50D23C1F828389CF80010E8E79DF8D5
:101AF0007030012B00F0FB804121894B9C464FF058
:101B000040224FF00D0ED2F81C381B06FBD5C2F850
:101B100028181CF8011F51B10A29F4D1D2F81C3839
:101B20001906FBD5C2F828E89CF80010EBE7DFF8AF
:101B3000F4C120214FF040224FF00D0ED2F81C3896
:101B40001B06FBD5C2F828181CF8011F51B10A2941
:101B5000F4D1D2F81C381906FBD5C2F828E89CF855
:101B60000010EBE7A0EB0900FFF7C4F94FF04022AB
:101B7000D2F81C381806FBD50D23C2F828384FF0D0
:101B80004022D2F81C381906FBD50A2309A8DFF831
:101B900088B1C2F82838FEF7EDFC0122032109A81C
:101BA000FEF7ECFC0122042109A8FEF7E7FC002265
:101BB000052109A8FEF7E2FCDBF80490CDF80880C7
:101BC00095E803008DE8030009A926A894E80C0015
:101BD000FEF71AFDDBF80400DFF84CC154214FF08A
:101BE0004022D2F81C381B06FBD5C2F828181CF876
:101BF000011F69B10A29F4D14FF04021D1F81C38F6
:101C00001B06FBD50D23C1F828389CF80010E8E727
:101C10009DF89830022B67D05521444B9C464FF0DD
:101C200040224FF00D0ED2F81C381B06FBD5C2F82F
:101C300028181CF8011F51B10A29F4D1D2F81C3818
:101C40001906FBD5C2F828E89CF80010EBE7202124
:101C50004FF040224FF00D0CD2F81C381B06FBD57C
:101C6000C2F8281817F8011F49B10A29F4D1D2F88F
:101C70001C381906FBD5C2F828C83978ECE7A0EB68
:101C800009000D27FFF736F929480A214FF04022B5
:101C90000A291ED0D2F81C381B06FBD5C2F828181A
:101CA00010F8011F0029F3D140F2E7320491049BA0
:101CB000B3F5FA5F07D200BF049B01330493049B82
:101CC000B3F5FA5FF7D31346013A002BEED1013694
:101CD00016E5D2F81C381906FBD5C2F82878017829
:101CE000D8E741210E4F6BE65221124B96E7562161
:101CF000114B03E70921EBE50821E9E50721E7E5B9
:101D00000621E5E50521E3E50421E1E50321DFE521
:101D10000221DDE50121DBE5001000E0982C000840
:101D2000442A0008BC2C0008C42C00085C2A0008C7
:101D3000282C0008502A00083C2A00080E4A08B542
:101D40000E4B934208D2013A0D491846D21A22F09E
:101D50000302043200F084F80A4A0B4B934208D283
:101D6000013A00211846D21A22F00302043200F090
:101D70008DFAFFF7D7FB00BF0C0000200000002009
:101D8000082D00080C0000200C0000207BB972B95F
:101D90000029BEBF00204FF0004106E008BF002828
:101DA0001CBF6FF000414FF0FF3000F057B8ADF1AD
:101DB000080C6DE904CE002909DB002B1ADB00F0CA
:101DC000E9F8DDF804E0DDE9022304B070474042A1
:101DD00061EB4101002B1BDB00F0DCF8DDF804E0D7
:101DE000DDE9022304B0404261EB4101524263EB62
:101DF00043037047524263EB430300F0CBF8DDF836
:101E000004E0DDE9022304B0404261EB4101704788
:101E1000524263EB430300F0BDF8DDF804E0DDE976
:101E2000022304B0524263EB4303704753B94AB9EB
:101E3000002908BF00281CBF4FF0FF314FF0FF30D2
:101E400000F00CB8ADF1080C6DE904CE00F0A2F87A
:101E5000DDF804E0DDE9022304B07047704700BFFD
:101E6000844641EA000313F003036DD1403A41D3A5
:101E700051F8043B40F8043B51F8043B40F8043B64
:101E800051F8043B40F8043B51F8043B40F8043B54
:101E900051F8043B40F8043B51F8043B40F8043B44
:101EA00051F8043B40F8043B51F8043B40F8043B34
:101EB00051F8043B40F8043B51F8043B40F8043B24
:101EC00051F8043B40F8043B51F8043B40F8043B14
:101ED00051F8043B40F8043B51F8043B40F8043B04
:101EE00051F8043B40F8043B51F8043B40F8043BF4
:101EF000403ABDD2303211D351F8043B40F8043B94
:101F000051F8043B40F8043B51F8043B40F8043BD3
:101F100051F8043B40F8043B103AEDD20C3205D3A3
:101F200051F8043B40F8043B043AF9D2043208D09B
:101F3000D2071CBF11F8013B00F8013B01D30B880D
:101F400003806046704700BF082A13D38B078DD0EB
:101F500010F003038AD0C3F10403D21ADB071CBFBD
:101F600011F8013B00F8013B80D331F8023B20F827
:101F7000023B7BE7043AD9D3013A11F8013B00F860
:101F8000013BF9D20B7803704B7843708B788370E8
:101F9000604670472DE9F047089D0F4604468C4681
:101FA000002B48D18A42164661D9B2FA82F34BB16E
:101FB000C3F1200201FA03FC20FA02F29E4042EA39
:101FC0000C0C9C404FEA164EB7B2BCFBFEF1220C43
:101FD0000EFB11CC42EA0C4201FB07F0904209D9FA
:101FE000B21801F1FF3C80F0EE80904240F2EB80AD
:101FF00002393244121AA4B2B2FBFEF00EFB1022D8
:1020000044EA024400FB07F7A74209D9341900F15A
:10201000FF3280F0DA80A74240F2D78034440238A1
:1020200040EA0140E41B00211DB1DC400023C5E96A
:102030000043BDE8F0878B4206D90DB1C5E9000128
:1020400000210846BDE8F087B3FA83F1002948D1A2
:10205000BB4202D3824200F20781841A67EB03027B
:1020600001209446002DE4D0C5E9004CE1E7002AA8
:1020700000F09280B2FA82F3002B40F0A8808A1A16
:102080004FEA164E1FFA86FC0121200CB2FBFEF728
:102090000EFB172240EA02420CFB07F0904207D9E0
:1020A000B21807F1FF3802D2904200F2E2804746B0
:1020B000121AA4B2B2FBFEF00EFB102244EA024454
:1020C0000CFB00FCA44507D9341900F1FF3202D201
:1020D000A44500F2CB801046A4EB0C0440EA074074
:1020E000A2E7C1F120068B4022FA06FC4CEA030C61
:1020F00007FA01F420FA06F3F7404FEA1C4923439C
:1021000000FA01F81FFA8CFEB7FBF9F01C0C09FB72
:10211000107744EA074400FB0EF7A74202FA01F2E7
:102120000AD91CEB040400F1FF3A80F09B80A7421F
:1021300040F2988002386444E41B9FB2B4FBF9F388
:1021400009FB134447EA044403FB0EFEA64509D9E4
:102150001CEB040403F1FF3780F08280A6457FD991
:10216000023B644443EA0040A4EB0E04A0FB02E7F8
:10217000BC427346B94663D360D05DB1B8EB03028D
:1021800064EB090404FA06F622FA01F31E43CC407C
:10219000C5E9006400214CE76208480842EAC171C1
:1021A0000B0C43EA00438AB242EA0342B3FBF6F166
:1021B000E407B4463746B6461F23B0FBF6F0D21B01
:1021C00041EA004161E7614614E7104628E7C3F1A0
:1021D000200120FA01F29E4027FA01F19F403A4384
:1021E0004FEA164E1FFA86FCB1FBFEF70EFB1710E6
:1021F000110C41EA004107FB0CF8884504FA03F48E
:102200003AD9711807F1FF3001D288451FD8A1EBE8
:102210000801B1FBFEF808FB0CF70EFB181192B297
:1022200042EA0142BA422FD2B21808F1FF31C6D2B7
:10223000BA42C4D2A8F102013244C0E7F0459CD2B0
:10224000BEEB020367EB0C070138B94695E7A6EB36
:1022500008084144B81EB1FBFEF808FB0CF7DCE7A8
:102260003B467FE7504667E70846FBE634440238C2
:1022700032E7023F32441BE7A1EB08013846B1FBCD
:10228000FEF808FB0CF7C8E7414698E7830730B52E
:1022900046D08418844604E003F8011B9D0704D04F
:1022A0009C46A4456346F7D130BD013A0244A2EBF7
:1022B0000C02032A29D9CCB204EB04240F2A04EB24
:1022C00004442FD9A2F1100C2CF00F0C03F11005CF
:1022D000AC44C3E90044C3E9024410336345F8D178
:1022E00012F00C0F02F00F0E18D02EF0030C9C44CD
:1022F000AEF104051A4642F8044B6245FBD125F0C5
:10230000030404330EF003022344002ACCD0C9B2E4
:102310001A4403F8011B9342FBD130BD7246F4E727
:082320000346C6E79646E0E71C
:1023280000000000000000000000000000000000A5
:102338000100000000000000000001000000000093
:102348000000000000000100010000000000000083
:102358000000020000000000000000000000020071
:102368000100000000000000000003000000000061
:102378000000000000000300010000000000000051
:10238800000004000000000000000000000004003D
:10239800010000000000000000000500000000002F
:1023A800000000000000050001000000000000001F
:1023B8000000060000000000000000000000060009
:1023C80001000000000000000000070000000000FD
:1023D80000000000000007000100000000000000ED
:1023E80000000800000000000000000000000800D5
:1023F80001000000000000000000090000000000CB
:1024080000000000000009000100000000000000BA
:1024180000000A00000000000000000000000A00A0
:10242800010000000000000000000B000000000098
:102438000000000000000B00010000000000000088
:102448000100000000000000000000000100000082
:10245800000002000000000002000000000001006F
:10246800020000000100000000000200030000005C
:10247800010000000000020005000000020000004A
:102488000000020007000100010000000000020037
:102498000900000001000000000002000B0000001D
:1024A80002000000000002000D000300010000000F
:1024B800000002000F000000010000000000020000
:1024C80011000000020000000000020013000500D7
:1024D80001000000000002001500000001000000DB
:1024E80000000200170000000200000000000200C7
:1024F8001900070001000000000002001B00000096
:1025080002000000000001001D0009000100000099
:10251800000002001E000000010000000000020090
:1025280020000000020000000000020022000A0053
:10253800010000000000020024000000010000006B
:102548000000020026000000020000000000020057
:1025580028000C0001000000000002002A00000012
:1025680001000000000002002C0000000200000032
:10257800000002002E000E00010000000000020012
:1025880030000000010000000000020032000000DE
:1025980002000000000002003400100001000000EA
:1025A80000000200360000000200000000000100E8
:1025B800380012000100000000000200390000008D
:1025C80001000000000002003B00000002000000C3
:1025D800000002003D00130001000000000002009E
:1025E8003F00000001000000000002004100000060
:1025F8000200000000000200430015000100000076
:102608000000020045000000010000000000020078
:102618004700000002000000000002004900170007
:1026280001000000000002004B0000000100000053
:10263800000002004D00000002000000000002003F
:102648004F001900010000000000020051000000C6
:10265800020000000000010053001B000100000000
:102668000000020054000000010000000000020009
:1026780056000000020000000000020058001C0084
:1026880001000000000002005A00000001000000E4
:10269800000002005C0000000200000000000200D0
:1026A8005E001E0001000000000002006000000043
:1026B80001000000000002006200000002000000AB
:1026C8000000020064002000010000000000020079
:1026D8006600000001000000000002006800000021
:1026E80002000000000002006A0022001600180024
:1026F800190016001800170018001B001C00140011
:102708001A0015001D001E001F0014001D001500F2
:102718001D002100220012002000130023002400C5
:1027280025001000260027001000260011002600B2
:1027380029002A000E0028000F002B002C002D0075
:102748000E002B000F002B002F0030000C002E0075
:102758000D003100320033000A00340035000A0051
:1027680034000B0034003700380008003600090038
:1027780039003A003B0008003900090039003D00E3
:102788003E0006003C0007003F00400041000400F6
:102798004200430004004200050042004500460094
:1027A80002004400030047004800490002004700B7
:1027B800030047004B004C0000004A0001004D0098
:1027C8004E004F0000000000010000000000000063
:1027D800F4010000000000000100000000000000FB
:1027E800F401000000000000F301000000000000F8
:1027F800F4010000000000000100000000000000DB
:1028080004000000000000000300000000000000B9
:1028180004000000000000000100000000000000AB
:102828000400000000000000030000000000000099
:10283800040000000000000001000000000000008B
:10284800320000000000000031000000000000001D
:10285800320000000000000001000000000000003D
:10286800320000000000000001000000000000002D
:1028780032000000000000003100000000000000ED
:10288800320000000000000001000000000000000D
:10289800030000000000000002000000000000002B
:1028A800030000000000000001000000000000001C
:1028B800030000000000000002000000000000000B
:1028C80003000000000000000100000000000000FC
:1028D80005000000000000000400000000000000E7
:1028E80005000000000000000100000000000000DA
:1028F800640000000000000001000000000000006B
:1029080064000000000000006300000000000000F8
:10291800640000000000000001000000000000004A
:102928000A0000000000000009000000000000008C
:102938000A00000000000000010000000000000084
:102948000A0000000000000009000000000000006C
:102958000A00000000000000010000000000000064
:102968001400000000000000130000000000000038
:10297800140000000000000001000000000000003A
:10298800020000000000000001000000000000003C
:10299800020000000000000001000000000000002C
:1029A800020000000000000013000000000000000A
:1029B80014000000000000000100000000000000FA
:1029C80014000000000000001300000000000000D8
:1029D80014000000000000000100000000000000DA
:1029E8001400000000000000630000000000000068
:1029F800640000000000000001000000000000006A
:102A08006400000000000000050008000B00000042
:102A18000500000000000000640000000000000045
:102A280020637963203D200025206F66206672614F
:102A38006D6500005645544F4544000041505052C2
:102A48004F5645440000000052454A45435445440A
:102A580000000000554E4558504543544544000079
:102A6800504C4C3120323030204D487A2066726FFD
:102A78006D204853490000000A0A3D3D3D3D3D3D5B
:102A88003D3D3D3D3D3D3D3D3D3D3D3D3D3D3D3D6E
:102A98003D3D3D3D3D3D3D3D3D3D3D3D3D3D3D3D5E
:102AA8003D3D3D3D3D3D3D3D3D3D3D3D3D3D3D3D4E
:102AB8003D3D3D3D3D3D3D3D3D3D0A0020204849D1
:102AC80052414D20464C49474854205341464554AD
:102AD80059204B45524E454C202D2053544D3332EE
:102AE800483732335A472028434F525445582D4DC2
:102AF80037290A0020205A65726F2D4865617020B9
:102B08004D495352412D4320536166657479204DD8
:102B18006F6E69746F72204F6E6C696E65207C20D1
:102B2800445754204163746976650A003D3D3D3D34
:102B38003D3D3D3D3D3D3D3D3D3D3D3D3D3D3D3DBD
:102B48003D3D3D3D3D3D3D3D3D3D3D3D3D3D3D3DAD
:102B58003D3D3D3D3D3D3D3D3D3D3D3D3D3D3D3D9D
:102B68003D3D3D3D3D3D3D3D3D3D3D3D0A00000077
:102B78002020436C6F636B20203A20000A202043FA
:102B88005055202020203A2000000000204D487A8F
:102B98002020284457545F435943434E5420636FC1
:102BA800756E74732061742074686973207261741F
:102BB80065290A0020204672616D6520203A20347C
:102BC800303020487A203D2032353030207573204F
:102BD8003D200000206379636C65730A00000000E3
:102BE8003D3D3D3D3D3D3D3D3D3D3D3D3D3D3D3D0D
:102BF8003D3D3D3D3D3D3D3D3D3D3D3D3D3D3D3DFD
:102C08003D3D3D3D3D3D3D3D3D3D3D3D3D3D3D3DEC
:102C18003D3D3D3D3D3D3D3D3D3D3D3D3D3D3D3DDC
:102C28000A0A00002D2D2D205B4652414D452000FB
:102C38005D202D2D2D2D2D2D2D2D2D2D2D2D2D2D99
:102C48002D2D2D2D2D2D2D2D2D2D2D2D2D2D2D2DAC
:102C58002D2D2D2D2D2D2D2D2D2D2D2D2D2D2D0ABF
:102C68000000000054657374203120284E6F6D6990
:102C78006E616C293A202020202020446563697306
:102C8800696F6E203D20000020207C20000000009D
:102C980054657374203220285374616C6C20486129
:102CA8007A617264293A204465636973696F6E209A
:102CB8003D200000202020207C20000054657374F3
:102CC80020332028436F6E74726164696374696F7E
:102CD8006E293A4465636973696F6E203D20000070
:102CE800485349203634204D487A2028504C4C20EF
:102CF8006E6F7420656E6761676564290000000067
:0C2D08000090D0030090D003E82C0008DD
:0400000508001D3D95
:00000001FF
